:100000000C9492000C94BA000C94BA000C94BA00B0
:100010000C94BA000C94BA000C94BA000C94BA0078
:100020000C94BA000C94BA000C942D030C949C030D
:100030000C94BA000C94BA000C94BA000C94BA0058
:100040000C94BA000C94BA000C94BA000C94BA0048
:100050000C94BA000C94BA000C94BA000C94BF052E
:100060000C94BA000C94BA000C94BA000C94BA0028
:100070000C94BA000C94BA000C94BA000C94BA0018
:100080000C94BA000C94BA000C94BA000C94BA0008
:100090000C94BA000C94BA000C94BA000C94BA00F8
:1000A0000C94BA000C94BA000C94BA00080B00022D
:1000B0000202010009040000010202000005240000
:1000C0001001052401010104240206052406000193
:1000D0000705810310004009040100020A00000026
:1000E00007050202400000070583024000000403E8
:1000F000090412010002EF02014041233680000191
:100100000102030141726475696E6F204C4C43001B
:1001100041726475696E6F204C656F6E6172646FB9
:100120000000D20611241FBECFEFDAE0DEBFCDBF44
:1001300011E0A0E0B1E0EEEDFDE002C005900D920F
:10014000A632B107D9F721E0A6E2B1E001C01D92C5
:10015000A539B207E1F710E0C2E9D0E004C0219769
:10016000FE010E94E706C139D107C9F70E940906BE
:100170000C94ED060C940000FC01809194018823FE
:1001800011F13FB7F89482E08093E9002091F200EA
:10019000822F90E01816190614F481E090E088236D
:1001A00039F0289844E6409393014091F100408350
:1001B000222339F02091F200211103C02BE6209375
:1001C000E8003FBF08958FEF9FEF08952FB7F89491
:1001D00083E08093E9009091E800892F807295FF79
:1001E00004C09091F20080E4891B2FBF0895809194
:1001F0008B0181110DC082E08093870184E08093A0
:10020000880110928A011092890181E080938B010C
:1002100087E891E008954091310150913201209199
:100220002F013091300142175307B4F49091E80048
:100230009570E1F39091E80092FD19C08093F10070
:10024000809131019091320101968F739927892B0A
:1002500019F48EEF8093E800809131019091320182
:100260000196909332018093310181E0089580E0FE
:100270000895EF92FF920F931F93CF93DF93F82E81
:10028000192FE62E042F81E0860F880F0E940B01A4
:1002900083E00E940B01CF2DD12FEC0EFD2EF11C1F
:1002A000CE15DF05B9F007FF13C0FE0184910E944F
:1002B0000B01182F80E00E940B01812321968111F0
:1002C000EFCFDF91CF911F910F91FF90EF900895A5
:1002D0008881EDCF81E0F5CFDF92EF92FF920F930F
:1002E0001F93CF93DF93D82E8A01EB017B01E40E9D
:1002F000F51ECE15DF0559F0D7FE12C0FE01849120
:100300000E940B0121968111F4CF0FEF1FEFC8015E
:10031000DF91CF911F910F91FF90EF90DF900895A3
:100320008881EECF0F931F93CF93DF931F92CDB7AA
:10033000DEB782E0898342E450E06CEA70E080E856
:100340000E946C010E94F700DC0112960D911C9135
:100350000115110589F0D801ED91FC910280F3811E
:10036000E02DBE016F5F7F4FC801099597FD04C066
:10037000F80100851185ECCF89810F90DF91CF9135
:100380001F910F910895615030F02091F100FC0110
:1003900020830196F8CF289884E6809393010895EE
:1003A000CF93DF931F92CDB7DEB76983DC01ED9168
:1003B000FC910280F381E02D41E050E0BE016F5FCF
:1003C0007F4F09950F90DF91CF91089583E080933F
:1003D000E9008091F200882319F08AE38093E80015
:1003E00008950E94E60090E00895CF93DF931F9256
:1003F000CDB7DEB7FC018485958597FD08C02FEF4A
:100400003FEF358724870F90DF91CF910895CE017C
:1004100001960E94BC00019719F4898190E0F3CF06
:100420008FEF9FEFF0CF0F931F93CF93DF931F9228
:10043000CDB7DEB78C01FC018485958597FF0BC095
:10044000CE0101960E94BC00019771F4898190E071
:10045000F80195878487F801848595850F90DF9151
:10046000CF911F910F9108958FEF9FEFF1CFFC0176
:100470008485958597FD0BC09FB7F89482E08093A3
:10048000E9008091F2009FBF90E0019608959FB728
:10049000F89482E08093E9008091F2009FBF90E0A1
:1004A00008953FB7F89480912B0190912C01A09171
:1004B0002D01B0912E0126B5A89B05C02F3F19F044
:1004C0000196A11DB11D3FBFBA2FA92F982F8827D4
:1004D000BC01CD01620F711D811D911D42E0660FAF
:1004E000771F881F991F4A95D1F708958F929F9281
:1004F000AF92BF92CF92DF92EF92FF924B015C01DD
:100500000E9451026B017C010E9451026C197D090D
:100510008E099F09683E734081059105A8F321E08B
:10052000821A9108A108B10888EEC80E83E0D81E8F
:10053000E11CF11C81149104A104B10429F7FF907E
:10054000EF90DF90CF90BF90AF909F908F900895E5
:100550008F929F92AF92BF92CF92DF92EF92FF92D3
:100560000F931F93CF93DF936C017B018A018091DE
:100570000B01882309F45CC080919401882309F45D
:1005800057C08091350180FF05C08091E0008260F6
:100590008093E000E801B12C8AEFA82E93E0892E29
:1005A0002AE3922E209711F4BB20D9F10E94E60095
:1005B00081110AC0AA94AA20D9F161E070E080E01C
:1005C00090E00E947602EECF8C171D0611F00CF021
:1005D0008C2F9FB7F8948092E9002091E80025FDC8
:1005E00002C09FBFDFCF282F30E0C21BD30BF70123
:1005F000815020F041914093F100FACFE20EF31EBA
:10060000BB2021F09092E800B12CEBCF8091E80064
:1006100085FDE7CF9092E800BB24B394209709F3BF
:10062000F3CF5D9884E680933301101611063CF0F9
:1006300081E090E0F6019383828310E000E0C8013E
:10064000DF91CF911F910F91FF90EF90DF90CF90AE
:10065000BF90AF909F908F9008951F920F920FB60A
:100660000F9211248F939F938091E1009091E1006C
:10067000937F9093E10083FF0FC01092E90091E017
:100680009093EB001092EC0092E39093ED001092A7
:10069000940198E09093F00082FF22C093E0909341
:1006A000E9009091F200992319F09AE39093E80001
:1006B00090913301992341F090913301915090939F
:1006C0003301911101C05D9A90919301992341F0FA
:1006D00090919301915090939301911101C0289AA8
:1006E00084FF18C08091E2008E7E81608093E200DA
:1006F0008091E1008F7E8093E100809135018E7EB4
:100700008061809335019F918F910F900FBE0F9064
:100710001F90189580FFF7CF8091E2008E7E806158
:100720008093E2008091E1008E7E8093E1008091D1
:1007300035018E7E8160E5CF1F920F920FB60F922A
:100740001124CF92DF92EF92FF920F931F932F937A
:100750003F934F935F936F937F938F939F93AF9349
:10076000BF93EF93FF93CF93DF93CDB7DEB76C9733
:10077000DEBFCDBF1092E9008091E80083FF25C065
:1007800068E0CE0145960E94C30182EF8093E800A5
:100790008D8987FF39C09091E80090FFFCCF982F9A
:1007A000907609F034C19E894F89588D2F89F88C35
:1007B000911131C0803861F5809136018093F1004C
:1007C0001092F1008EEF8093E8006C960FB6F894CB
:1007D000DEBF0FBECDBFDF91CF91FF91EF91BF91F3
:1007E000AF919F918F917F916F915F914F913F91C9
:1007F0002F911F910F91FF90EF90DF90CF900F906E
:100800000FBE0F901F9018959EEF9093E800C7CFF2
:100810001092F100D5CF913059F48111D3CF4130EE
:10082000510581F6809136018D7F80933601CACFC4
:10083000933049F48111C6CF4130510519F68091AA
:1008400036018260F2CF953041F48091E80080FF5C
:10085000FCCF20682093E300B5CF963009F0A9C003
:100860000B8D1C8D22E01092E90010923201109243
:100870003101F2122EC01092300110922F010E940D
:1008800092011F8299E09983FA8291E09E8390EA17
:1008900098879AEF99872091310130913201275F33
:1008A0003F4F3C832B838D831092E90010923201DD
:1008B000109231011093300100932F0149E050E074
:1008C000BE016F5F7F4F80E00E946C010E94920129
:1008D00079CF1093300100932F010E94F700DC01C3
:1008E00012960D911C910115110509F43BC1D80117
:1008F000ED91FC910480F581E02DBE016B5E7F4F90
:10090000C8010995009709F028C1F80100851185F3
:10091000EACFF3E0FF120EC08F89882309F440C0AC
:10092000823061F440E860E180E191E00E943901A9
:10093000811148CF81E28093EB0047CF813029F4C9
:1009400040E86BE084E091E0F1CF833099F70E94BA
:10095000F700DC011296ED90FC908E010F5F1F4FA7
:100960006801E114F10479F0D701ED91FC91068062
:10097000F781E02DB801C7010995080F111DF70196
:10098000E084F184EECFD8011C92F60101900020A2
:10099000E9F73197BF016C197D0940E0C601C6CF68
:1009A0006EEE70E0FB01449150E080E80E946C0123
:1009B00009CF973009F4BECF983021F481E08093BD
:1009C000F10000CF993009F0FDCE837009F0B2CF6D
:1009D000EFE1F1E081E031E096E32191222371F033
:1009E0008093E9003093EB00DF0111972C91209365
:1009F000EC009093ED008F5F873079F78EE780935E
:100A0000EA001092EA008F8980939401DBCE8B8DEF
:100A10009C8D1092E9001092320110923101909356
:100A2000300180932F01898D81117DC08E899D8930
:100A3000913A49F4813209F07DCF47E050E064E01B
:100A400071E080E0B3CF913209F074CF833269F462
:100A50008F89988DB0E0A0E0809300019093010110
:100A6000A0930201B0930301ADCE803209F080C0A3
:100A70008091E80082FFFCCF67E084E091E00E9473
:100A8000C3018BEF8093E80080913401E0E0F8E04F
:100A9000882311F0EEEFFAE08091040190910501B6
:100AA000A0910601B0910701803B9440A105B105DA
:100AB000B9F480910B0180FD13C0EE3F8AE0F80786
:100AC00021F587E797E79183808388E19BE00FB664
:100AD000F894A895809360000FBE9093600072CE4A
:100AE0000FB6F894A89580916000886180936000AB
:100AF000109260000FBEA895EE3FAAE0FA0761F4DD
:100B00001092FF0A1092FE0A5DCE8081918190932F
:100B1000FF0A8093FE0AD5CF8091FE0A9091FF0ACA
:100B2000918380834FCE0E94F700FC0102811381E4
:100B30000115110509F4FECED801ED91FC9101904B
:100B4000F081E02DBE016B5E7F4FC80109958111D8
:100B500039CEF80100851185EBCF181619060CF473
:100B600031CEE8CEF1E0FF12D4CE62EF70E01ACFC2
:100B7000823209F027CE8F8980930B0185CF1F9297
:100B80000F920FB60F9211242F933F938F939F9341
:100B9000AF93BF938091270190912801A0912901E3
:100BA000B0912A013091260123E0230F2D3758F50B
:100BB0000196A11DB11D20932601809327019093DA
:100BC0002801A0932901B0932A0180912B019091D3
:100BD0002C01A0912D01B0912E010196A11DB11DF6
:100BE00080932B0190932C01A0932D01B0932E01A3
:100BF000BF91AF919F918F913F912F910F900FBE19
:100C00000F901F90189526E8230F0296A11DB11D85
:100C1000D2CF789484B5826084BD84B5816084BD70
:100C200085B5826085BD85B5816085BD80916E008A
:100C3000816080936E0010928100809181008260BB
:100C400080938100809181008160809381008091F8
:100C50008000816080938000809191008260809309
:100C6000910080919100816080939100809190002B
:100C70008160809390008091C10084608093C10066
:100C80008091C10082608093C1008091C100816029
:100C90008093C1008091C30081608093C3008091E4
:100CA000C00082608093C0008091C2008160809308
:100CB000C20080917A00846080937A0080917A00EB
:100CC000826080937A0080917A00816080937A00BC
:100CD00080917A00806880937A001092940110923B
:100CE0003601109235018091D70081608093D70042
:100CF00080EA8093D80089B5806189BD89B582601A
:100D000089BD09B400FEFDCF61E070E080E090E0B5
:100D10000E9476028091D8008F7C80618093D800F9
:100D20008091E000807F8093E0008091E1008E7EE2
:100D30008093E1008DE08093E200559A209AEEEFD7
:100D4000FFE7859194918B3F9C4D19F481E080934E
:100D500034018FEF9FEF9093440180934301C0E0F3
:100D6000D0E0289864EF71E080E090E00E94760285
:100D7000289A64EF71E080E090E00E9476025D982E
:100D80006CE271E080E090E00E9476025D9A6CE295
:100D900071E080E090E00E947602209711F30E94BB
:100DA0000000DFCFE7E3F1E01382128288EE93E0E8
:100DB000A0E0B0E084839583A683B78380E191E0CF
:100DC000918380838FEF9FEF958784870895EE0F3F
:0E0DD000FF1F0590F491E02D0994F894FFCFD9
:100DDE00FFFFFFFF00E10000000000000000000028
:100DEE00D001A802F101E6013702F501130200C19C
:060DFE00808100000000EE
:00000001FF
