:100000000C9492000C94BA000C94BA000C94BA00B0
:100010000C94BA000C94BA000C94BA000C94BA0078
:100020000C94BA000C94BA000C94FD050C946C0668
:100030000C94BA000C94BA000C94BA000C94BA0058
:100040000C94BA000C94BA000C94BA000C94BA0048
:100050000C94BA000C94BA000C94BA000C948F085B
:100060000C94BA000C94BA000C94BA000C94BA0028
:100070000C94BA000C94BA000C94BA000C94BA0018
:100080000C94BA000C94BA000C94BA000C94BA0008
:100090000C94BA000C94BA000C94BA000C94BA00F8
:1000A0000C94BA000C94BA000C94BA00080B00022D
:1000B0000202010009040000010202000005240000
:1000C0001001052401010104240206052406000193
:1000D0000705810310004009040100020A00000026
:1000E00007050202400000070583024000000403E8
:1000F000090412010002EF02014041233680000191
:100100000102030141726475696E6F204C4C43001B
:1001100041726475696E6F204C656F6E6172646FB9
:100120000000EE0A11241FBECFEFDAE0DEBFCDBF24
:1001300013E0A0E0B1E0E6E1F6E102C005900D9227
:10014000AE33B107D9F723E0AEE3B3E001C01D92AF
:10015000A63EB207E1F710E0C2E9D0E004C0219763
:10016000FE010E94030BC139D107C9F70E94D908CB
:100170000C94090B0C940000FC018091C5038823AA
:1001800011F13FB7F89482E08093E9002091F200EA
:10019000822F90E01816190614F481E090E088236D
:1001A00039F0289844E64093C4034091F10040831D
:1001B000222339F02091F200211103C02BE6209375
:1001C000E8003FBF08958FEF9FEF08950F931F93AF
:1001D0004091B7035091B8036091B9037091BA038D
:1001E00090E0981781F1E92F092E000CFF0BEA53DC
:1001F000FC4F0081002E000C110B220B330B042747
:10020000152726273727E8E09F5FB901A80141702D
:1002100055276627772770956095509541955F4FD4
:100220006F4F7F4F40725378687B7D7E3695279560
:10023000179507954027512762277327E1508A01B8
:100240009B0119F7CECF4093B7035093B803609347
:10025000B9037093BA031F910F9108952FB7F894C3
:1002600083E08093E9009091E800892F807295FFE8
:1002700004C09091F20080E4891B2FBF0895809103
:10028000AF0381110DC082E08093AB0384E08093C3
:10029000AC031092AE031092AD0381E08093AF03E4
:1002A0008BEA93E0089540914A0350914B032091CB
:1002B00048033091490342175307B4F49091E80082
:1002C0009570E1F39091E80092FD19C08093F100E0
:1002D00080914A0390914B0301968F739927892B44
:1002E00019F48EEF8093E80080914A0390914B03BC
:1002F000019690934B0380934A0381E0089580E038
:100300000895EF92FF920F931F93CF93DF93F82EF0
:10031000192FE62E042F81E0860F880F0E945301CB
:1003200083E00E945301CF2DD12FEC0EFD2EF11C46
:10033000CE15DF05B9F007FF13C0FE0184910E94BE
:100340005301182F80E00E945301812321968111CF
:10035000EFCFDF91CF911F910F91FF90EF90089514
:100360008881EDCF81E0F5CFDF92EF92FF920F937E
:100370001F93CF93DF93D82E8A01EB017B01E40E0C
:10038000F51ECE15DF0559F0D7FE12C0FE0184918F
:100390000E94530121968111F4CF0FEF1FEFC80186
:1003A000DF91CF911F910F91FF90EF90DF90089513
:1003B0008881EECF0F931F93CF93DF931F92CDB71A
:1003C000DEB782E0898342E450E06CEA70E080E8C6
:1003D0000E94B4010E943F01DC0112960D911C9114
:1003E0000115110589F0D801ED91FC910280F3818E
:1003F000E02DBE016F5F7F4FC801099597FD04C0D6
:10040000F80100851185ECCF89810F90DF91CF91A4
:100410001F910F910895615030F02091F100FC017F
:1004200020830196F8CF289884E68093C40308952A
:10043000CF93DF931F92CDB7DEB76983DC01ED91D7
:10044000FC910280F381E02D41E050E0BE016F5F3E
:100450007F4F09950F90DF91CF91089583E08093AE
:10046000E9008091F200882319F08AE38093E80084
:1004700008950E942E0190E00895CF93DF931F927C
:10048000CDB7DEB7FC018485958597FD08C02FEFB9
:100490003FEF358724870F90DF91CF910895CE01EC
:1004A00001960E94BC00019719F4898190E0F3CF76
:1004B0008FEF9FEFF0CF0F931F93CF93DF931F9298
:1004C000CDB7DEB78C01FC018485958597FF0BC005
:1004D000CE0101960E94BC00019771F4898190E0E1
:1004E000F80195878487F801848595850F90DF91C1
:1004F000CF911F910F9108958FEF9FEFF1CFFC01E6
:100500008485958597FD0BC09FB7F89482E0809312
:10051000E9008091F2009FBF90E0019608959FB797
:10052000F89482E08093E9008091F2009FBF90E010
:1005300008953FB7F8948091440390914503A091AA
:100540004603B091470326B5A89B05C02F3F19F07D
:100550000196A11DB11D3FBFBA2FA92F982F882743
:10056000BC01CD01620F711D811D911D42E0660F1E
:10057000771F881F991F4A95D1F708958F929F92F0
:10058000AF92BF92CF92DF92EF92FF924B015C014C
:100590000E9499026B017C010E9499026C197D09ED
:1005A0008E099F09683E734081059105A8F321E0FB
:1005B000821A9108A108B10888EEC80E83E0D81EFF
:1005C000E11CF11C81149104A104B10429F7FF90EE
:1005D000EF90DF90CF90BF90AF909F908F90089555
:1005E0008F929F92AF92BF92CF92DF92EF92FF9243
:1005F0000F931F93CF93DF936C017B018A0180914E
:100600000B03882309F45CC08091C503882309F497
:1006100057C080914E0380FF05C08091E00082604A
:100620008093E000E801B12C8AEFA82E93E0892E98
:100630002AE3922E209711F4BB20D9F10E942E01BB
:1006400081110AC0AA94AA20D9F161E070E080E08B
:1006500090E00E94BE02EECF8C171D0611F00CF048
:100660008C2F9FB7F8948092E9002091E80025FD37
:1006700002C09FBFDFCF282F30E0C21BD30BF70192
:10068000815020F041914093F100FACFE20EF31E29
:10069000BB2021F09092E800B12CEBCF8091E800D4
:1006A00085FDE7CF9092E800BB24B394209709F32F
:1006B000F3CF5D9884E680934C03101611063CF04E
:1006C00081E090E0F6019383828310E000E0C801AE
:1006D000DF91CF911F910F91FF90EF90DF90CF901E
:1006E000BF90AF909F908F900895FC01909141032F
:1006F000492F50E08081DA01AA53BC4F8C9320919E
:100700004203808182278093420320913F0321503E
:10071000330B4217530749F485E090E090935A0356
:10072000809359031092410308959F5F9093410372
:100730000895FC01808180933E038150803238F41B
:1007400084E090E090935A038093590308951092A7
:100750005A03109259030895FC01808180933F034E
:100760008150803238F483E090E090935A03809374
:100770005903089510925A03109259030895FC01E9
:100780008081809340039FEF980F943038F08F3F23
:1007900029F010925A0310925903089582E090E0D4
:1007A00090935A03809359030895FC01808181112D
:1007B00006C081E090E090935A0380935903089516
:1007C0008EBD00000DB407FEFDCF8EB5089547988D
:1007D00085E00E94E00380E00E94E003479A817078
:1007E0000895FF920F931F93CF93DF93162F072F38
:1007F000F82ED42F0E94E703C82F8111FBCF479812
:100800008BE00E94E0038F2D0E94E003802F0E9466
:10081000E003812F0E94E00380E00E94E00306ECE9
:1008200013E0CD1307C0479ADF91CF911F910F912D
:10083000FF90089580E00E94E003F80181938F010A
:10084000CF5FEFCF479886E00E94E003479A0E946F
:10085000E7038111FCCF479808954F925F926F9202
:100860007F928F929F92AF92BF92CF92DF92EF9240
:10087000FF920F931F93CF93DF932B013C014A010B
:10088000E9019B01332780E091E0821B930BF12C5F
:10089000E12C209789F4DF91CF911F910F91FF9068
:1008A000EF90DF90CF90BF90AF909F908F907F9010
:1008B0006F905F904F9008958E018C179D0708F4FC
:1008C0008C010E94220482E00E94E003862D0E9497
:1008D000E003852D0E94E003842D0E94E003540173
:1008E000AE0CBF1C6501F60181916F010E94E0030F
:1008F000C6018A199B0980179107A8F3479A0E949D
:100900002204400E511E611C711CE00EF11EC01B22
:10091000D10B80E091E0BDCF0F931F93CF93DF9376
:100920008C01C7EBD3E06C817D818E819F81980122
:1009300046EC53E00E942D048C819D81AE81BF81E5
:10094000800F911FA11DB11D8C839D83AE83BF833A
:10095000DF91CF911F910F9108950F931F93CF9324
:10096000DF93D62F172F082FC42F0E94220482E076
:100970000E94E003802F0E94E003812F0E94E00389
:100980008D2F0E94E0038C2F0E94E003479ADF9195
:10099000CF911F910F910C942204CF93FC01908171
:1009A000809142036EEF9817A1F08BE593E00E94CF
:1009B000180261E070E080E090E00E94BE021092B8
:1009C0005A03109259031092420310924103CF919F
:1009D00008958BE593E00E94180261E070E080E0EA
:1009E00090E00E94BE02809140038130E9F5C09101
:1009F0003F036091BB037091BC038091BD03909154
:100A0000BE034C2F0E94AD046091BB037091BC03E8
:100A10008091BD039091BE036F5F7F4F8F4F9F4FBB
:100A20006093BB037093BC038093BD039093BE039C
:100A300040913E030E94AD048091BB039091BC03A2
:100A4000A091BD03B091BE030196A11DB11D80937D
:100A5000BB039093BC03A093BD03B093BE038C2F44
:100A600090E00E948C04ABCF8230C9F48091BF0328
:100A70009091C003A091C103B091C2038093BB03C6
:100A80009093BC03A093BD03B093BE0380913F033A
:100A900090E00E948C0481E08093540390CF8430D6
:100AA00009F08DCF8091BF039091C003A091C10345
:100AB000B091C2030496A11DB11D8093BB03909316
:100AC000BC03A093BD03B093BE0380913F03C8CF86
:100AD0001F93CF93DF93EB01182F0E94E70381113F
:100AE000FCCF479883E00E94E003812F0E94E0033F
:100AF0008D2F0E94E0038C2F0E94E00380E00E9473
:100B0000E003479ADF91CF911F9108958F929F92B2
:100B1000AF92BF92CF92DF92EF92FF926B017C0176
:100B200049015A01C814D904EA04FB04C0F40E9424
:100B3000220480E20E94E00380E00E94E0038D2D09
:100B40000E94E0038C2D0E94E003479A0E94220439
:100B50008FEFC80E8FE0D81EE11CF11CE3CFFF9091
:100B6000EF90DF90CF90BF90AF909F908F900895BF
:100B70001092540310925A031092590360E070E1EE
:100B800080E090E00E9468058F3F79F580E090E179
:100B9000A0E0B0E08093BB039093BC03A093BD039F
:100BA000B093BE0320E031E040E052E060E070E14D
:100BB00080E090E00E942D046091BB037091BC0323
:100BC0008091BD039091BE037F5F8F4F9F4F6093D5
:100BD000BB037093BC038093BD039093BE0320E0DE
:100BE00031E040E051E00E942D04E7EBF3E08DE0BE
:100BF000DF011D928A95E9F708951F920F920FB6B3
:100C00000F9211248F939F938091E1009091E100C6
:100C1000937F9093E10083FF0FC01092E90091E071
:100C20009093EB001092EC0092E39093ED00109201
:100C3000C50398E09093F00082FF22C093E0909368
:100C4000E9009091F200992319F09AE39093E8005B
:100C500090914C03992341F090914C0391509093C3
:100C60004C03911101C05D9A9091C403992341F006
:100C70009091C40391509093C403911101C0289A9C
:100C800084FF18C08091E2008E7E81608093E20034
:100C90008091E1008F7E8093E10080914E038E7EF3
:100CA000806180934E039F918F910F900FBE0F90A4
:100CB0001F90189580FFF7CF8091E2008E7E8061B3
:100CC0008093E2008091E1008E7E8093E10080912C
:100CD0004E038E7E8160E5CF1F920F920FB60F926A
:100CE0001124CF92DF92EF92FF920F931F932F93D5
:100CF0003F934F935F936F937F938F939F93AF93A4
:100D0000BF93EF93FF93CF93DF93CDB7DEB76C978D
:100D1000DEBFCDBF1092E9008091E80083FF25C0BF
:100D200068E0CE0145960E940B0282EF8093E800B6
:100D30008D8987FF39C09091E80090FFFCCF982FF4
:100D4000907609F034C19E894F89588D2F89F88C8F
:100D5000911131C0803861F580914F038093F1008B
:100D60001092F1008EEF8093E8006C960FB6F89425
:100D7000DEBF0FBECDBFDF91CF91FF91EF91BF914D
:100D8000AF919F918F917F916F915F914F913F9123
:100D90002F911F910F91FF90EF90DF90CF900F90C8
:100DA0000FBE0F901F9018959EEF9093E800C7CF4D
:100DB0001092F100D5CF913059F48111D3CF413049
:100DC000510581F680914F038D7F80934F03CACFE9
:100DD000933049F48111C6CF4130510519F6809105
:100DE0004F038260F2CF953041F48091E80080FF9C
:100DF000FCCF20682093E300B5CF963009F0A9C05E
:100E00000B8D1C8D22E01092E90010924B03109282
:100E10004A03F2122EC010924903109248030E9416
:100E2000DA011F8299E09983FA8291E09E8390EA29
:100E300098879AEF998720914A0330914B03275F57
:100E40003F4F3C832B838D831092E90010924B031C
:100E500010924A03109349030093480349E050E07D
:100E6000BE016F5F7F4F80E00E94B4010E94DA01F3
:100E700079CF10934903009348030E943F01DC019E
:100E800012960D911C910115110509F43BC1D80171
:100E9000ED91FC910480F581E02DBE016B5E7F4FEA
:100EA000C8010995009709F028C1F801008511854E
:100EB000EACFF3E0FF120EC08F89882309F440C007
:100EC000823061F440E860E180E191E00E948101BC
:100ED000811148CF81E28093EB0047CF813029F424
:100EE00040E86BE084E091E0F1CF833099F70E9415
:100EF0003F01DC011296ED90FC908E010F5F1F4FB9
:100F00006801E114F10479F0D701ED91FC910680BC
:100F1000F781E02DB801C7010995080F111DF701F0
:100F2000E084F184EECFD8011C92F60101900020FC
:100F3000E9F73197BF016C197D0940E0C601C6CFC2
:100F40006EEE70E0FB01449150E080E80E94B40135
:100F500009CF973009F4BECF983021F481E0809317
:100F6000F10000CF993009F0FDCE837009F0B2CFC7
:100F7000EFE1F3E081E031E096E32191222371F08B
:100F80008093E9003093EB00DF0111972C912093BF
:100F9000EC009093ED008F5F873079F78EE78093B8
:100FA000EA001092EA008F898093C503DBCE8B8D17
:100FB0009C8D1092E90010924B0310924A0390937B
:100FC000490380934803898D81117DC08E899D8955
:100FD000913A49F4813209F07DCF47E050E064E076
:100FE00073E080E0B3CF913209F074CF833269F4BB
:100FF0008F89988DB0E0A0E0809300039093010367
:10100000A0930203B0930303ADCE803209F080C0F9
:101010008091E80082FFFCCF67E084E093E00E94CB
:101020000B028BEF8093E80080914D03E0E0F8E045
:10103000882311F0EEEFFAE080910403909105030C
:10104000A0910603B0910703803B9440A105B10530
:10105000B9F480910B0380FD13C0EE3F8AE0F807DE
:1010600021F587E797E79183808388E19BE00FB6BE
:10107000F894A895809360000FBE9093600072CEA4
:101080000FB6F894A8958091600088618093600005
:10109000109260000FBEA895EE3FAAE0FA0761F437
:1010A0001092FF0A1092FE0A5DCE8081918190938A
:1010B000FF0A8093FE0AD5CF8091FE0A9091FF0A25
:1010C000918380834FCE0E943F01FC0102811381F6
:1010D0000115110509F4FECED801ED91FC910190A6
:1010E000F081E02DBE016B5E7F4FC8010995811133
:1010F00039CEF80100851185EBCF181619060CF4CE
:1011000031CEE8CEF1E0FF12D4CE62EF70E01ACF1C
:10111000823209F027CE8F8980930B0385CF1F92EF
:101120000F920FB60F9211242F933F938F939F939B
:10113000AF93BF938091550390915603A0915703AD
:10114000B09158033091430323E0230F2D3758F516
:101150000196A11DB11D20934303809355039093E5
:101160005603A0935703B093580380914403909182
:101170004503A0914603B09147030196A11DB11DFF
:101180008093440390934503A0934603B093470391
:10119000BF91AF919F918F913F912F910F900FBE73
:1011A0000F901F90189526E8230F0296A11DB11DE0
:1011B000D2CFCF93DF931F92CDB7DEB7789484B5AB
:1011C000826084BD84B5816084BD85B5826085BD43
:1011D00085B5816085BD80916E00816080936E00D1
:1011E00010928100809181008260809381008091C3
:1011F0008100816080938100809180008160809374
:101200008000809191008260809391008091910094
:101210008160809391008091900081608093900024
:101220008091C10084608093C1008091C100826080
:101230008093C1008091C10081608093C100809142
:10124000C30081608093C3008091C000826080935E
:10125000C0008091C20081608093C20080917A00BA
:10126000846080937A0080917A00826080937A0013
:1012700080917A00816080937A0080917A00806802
:1012800080937A001092C50310924F0310924E0380
:101290008091D70081608093D70080EA8093D80046
:1012A00089B5806189BD89B5826089BD09B400FEB8
:1012B000FDCF61E070E080E090E00E94BE0280918E
:1012C000D8008F7C80618093D8008091E000807F7F
:1012D0008093E0008091E1008E7E8093E1008DE0BC
:1012E0008093E200559A209AEEEFFFE78591949162
:1012F0008B3F9C4D19F481E080934D038FEF9FEF5E
:10130000909368038093670384B1876084B9409A9F
:10131000289A81E58CBD47988FE90E94E00380E020
:101320000E94E00380E00E94E003479A0E94B80513
:101330002FEF3FE040E050E060E070E0CB010E9422
:1013400086055D9890E0292E90E0392E25E0822ECA
:1013500020E2922EA12CB12C44244A943FE1532E3A
:10136000612C712C8BE593E00E947F02892B09F49C
:1013700016C18BE593E00E943D02182F61E070E0FA
:1013800080E090E00E94BE02153FD1F48092BB0342
:101390009092BC03A092BD03B092BE034092BF03E3
:1013A0005092C0036092C1037092C2032EEF3FEAD5
:1013B00040E050E06FEF7FE180E090E00E94860522
:1013C0008FB7F894C0905503D0905603E090570320
:1013D000F09058038FBF8CE2C80E81E0D81EE11C4C
:1013E000F11C8BE593E00E947F021816190694F514
:1013F0008BE593E00E947F02892B99F38FB7F894D5
:10140000C0905503D0905603E0905703F0905803D6
:101410008FBF82E3C80ED11CE11CF11C8BE593E069
:101420000E943D02898361E070E080E090E00E94CC
:10143000BE02E0915903F0915A03EE0FFF1FEE0F29
:10144000FF1FEB5DFC4F0280F381E02DCE01019682
:101450000995C7CF2FB7F894809155039091560303
:10146000A0915703B09158032FBF8C159D05AE0571
:10147000BF0508F4BDCF80915403882309F46DC0E3
:10148000C090BF03D090C003E090C103F090C203AE
:10149000E6E0CE0ED11CE11CF11C1092B7031092B5
:1014A000B8031092B9031092BA038091BF039091D0
:1014B000C003A091C103B091C20381509047AF4FC8
:1014C000BF4F8C159D05AE05BF05D8F0C701B6010D
:1014D0000E946805182F8093C3038F3F91F0F2E0BC
:1014E000CF0ED11CE11CF11C482FC701B6010E9490
:1014F000F103C10ED11CE11CF11C812F0E94E600FA
:10150000D4CFC090BF03D090C003E090C103F0904F
:10151000C20304E513E0C701B6010E946805F801A3
:1015200082938F01FFEFCF1ADF0AEF0AFF0A23E051
:101530000035120781F76091BF037091C00380915D
:10154000C1039091C2036C5F7F4F8F4F9F4F42E06A
:101550000E94F10382E00E94E6004091B70350919F
:10156000B8036091B9037091BA03809150039091D0
:101570005103A0915203B0915303481759076A07CA
:101580007B07D1F068EF8BE593E00E94180261E0E1
:1015900070E080E090E00E94BE020E94B80564E620
:1015A00070E080E090E00E94BE022114310409F452
:1015B000D9CE0E940000D6CE69EF8BE593E00E9461
:1015C000180261E070E080E090E00E94BE0244E416
:1015D00060E070E0CB010E94AD04DFCFEBE5F3E00B
:1015E0001382128288EE93E0A0E0B0E084839583BA
:1015F000A683B78380E193E0918380838FEF9FEF91
:10160000958784870895EE0FFF1F0590F491E02DD4
:061610000994F894FFCFDD
:1016160052096AD53036A538BF40A39E81F3D7FB61
:101626007CE339829B2FFF87348E4344C4DEE9CBAB
:10163600547B9432A6C2233DEE4C950B42FAC34E20
:10164600082EA16628D924B2765BA2496D8BD125D6
:1016560072F8F66486689816D4A45CCC5D65B6927A
:101666006C704850FDEDB9DA5E154657A78D9D841E
:1016760090D8AB008CBCD30AF7E45805B8B345063E
:10168600D02C1E8FCA3F0F02C1AFBD0301138A6B58
:101696003A9111414F67DCEA97F2CFCEF0B4E67388
:1016A60096AC7422E7AD3585E2F937E81C75DF6E36
:1016B60047F11A711D29C5896FB7620EAA18BE1B9C
:1016C600FC563E4BC6D279209ADBC0FE78CD5AF442
:1016D6001FDDA8338807C731B11210592780EC5F88
:1016E60060517FA919B54A0D2DE57A9F93C99CEFE4
:1016F600A0E03B4DAE2AF5B0C8EBBB3C83539961E5
:10170600172B047EBA77D626E169146355210C7D22
:10171600637C777BF26B6FC53001672BFED7AB76A8
:10172600CA82C97DFA5947F0ADD4A2AF9CA472C053
:10173600B7FD9326363FF7CC34A5E5F171D83115C0
:1017460004C723C31896059A071280E2EB27B275E1
:1017560009832C1A1B6E5AA0523BD6B329E32F8459
:1017660053D100ED20FCB15B6ACBBE394A4C58CF51
:10177600D0EFAAFB434D338545F9027F503C9FA825
:1017860051A3408F929D38F5BCB6DA2110FFF3D2F3
:10179600CD0C13EC5F974417C4A77E3D645D1973A7
:1017A60060814FDC222A908846EEB814DE5E0BDBA1
:1017B600E0323A0A4906245CC2D3AC629195E479D8
:1017C600E7C8376D8DD54EA96C56F4EA657AAE0832
:1017D600BA78252E1CA6B4C6E8DD741F4BBD8B8ACD
:1017E600703EB5664803F60E613557B986C11D9E33
:1017F600E1F8981169D98E949B1E87E9CE5528DFAA
:101806008CA1890DBFE6426841992D0FB054BB16D5
:10181600FFFFFFFF00E100000000000000000000E5
:101826001802F00239022E027F023D025B0200C15D
:1018360080810000000000D5030100BF030200AC58
:0E1846000303009903040075030500CD0400A0
:2070000055C000006EC000006CC000006AC0000068C0000066C0000064C0000062C0000043
:2070200060C000005EC00000F2C400005AC0000058C0000056C0000054C0000052C00000EE
:2070400050C0000078C000004CC000004AC0000048C0000046C0000044C0000042C00000BE
:2070600040C000003EC000003CC000003AC0000038C0000036C0000034C0000032C0000048
:2070800030C000002EC000002CC000002AC0000028C0000026C0000024C0000022C00000A8
:2070A00020C000001EC000001CC0000011241FBECFEFDAE0DEBFCDBF11E0A0E0B1E0E2E3BC
:2070C000FFE702C005900D92A83AB107D9F711E0A8EAB1E001C01D92AE3BB107E1F78FD30B
:2070E00026C78ECFF89410926F0010928100109285001092840081E085BF15BE47985D9AEB
:20710000289A0C94000008952091B2013091B3012F5F3F4F3093B3012093B201932F37FFA6
:2071200003C08EEF831B982F990F921710F447980895479A08951F920F920FB60F9211246E
:207140002F938F939F93EF93FF9310928500109284008091A8019091A901009741F00197D3
:207160009093A9018093A801892B09F45D9A8091AA019091AB01009741F001979093AB0126
:207180008093AA01892B09F4289AE0E0F0E0859194918F5F9F4F49F08091AC019091AD0151
:2071A00001969093AD018093AC01FF91EF919F918F912F910F900FBE0F901F90189584E0BC
:2071C0008093E9000DC08091E8008B778093E80003C08EB3882351F08091E80082FFF9CFBE
:2071E0008091E80085FFEFCF8091F1000895982F83E08093E9008091E80085FD0DC0809136
:20720000E8008E778093E80003C08EB3882369F08091E80080FFF9CF9093F1005D9884E6CB
:2072200090E09093A9018093A80108954F925F926F927F928F929F92AF92BF92CF92DF921E
:20724000EF92FF920F931F93CF93DF9384E08093E9008091E80082FF57C2289884E690E067
:207260009093AB018093AA01AADF182F853481F48CE49DE19093AD018093AC0107B600FC4B
:20728000FDCFF999FECF81E180935700E89503C0843519F494DF8DE00DC28C34E1F38035F9
:2072A000D1F3843721F484E4A2DF80E003C2813611F489E5FFC18134B1F481DF182F7FDFE3
:2072C00090E0880F991FAA2797FDA095BA2F312F330F20E0442737FD4095542F822B932B68
:2072E000A42BB52BB8C1803711F483E5E3C1833549F4C0E0D1E089917ADF21E0C730D20714
:20730000D1F7D9C1863521F481E371DF80E3D2C1833731F487E86BDF85E969DF8EE1CAC149
:207320008536B9F4E0E0F0E093E085E090935700E89507B600FCFDCF80935700E89507B65D
:2073400000FCFDCFE058FF4FA0E7E030FA0771F7A2CF823739F4E1E0F0E089E08093570024
:207360008491A8C1863439F4E0E0F0E089E08093570084919FC18E3439F4E3E0F0E089E0E5
:2073800080935700849196C1813539F4E2E0F0E089E08093570084918DC1823631F489E521
:2073A00026DF80E024DF80E885C1823419F0873609F0E5C01092AD011092AC0100DF082FE8
:2073C000FEDEF82EFCDE682E8554823008F071C1902F80E0CF2DD0E0C82BD92B10926F00B3
:2073E000173609F04BC081E180935700E895DD24CC24C3943FC0E090AE01F090AF010091CC
:20740000B0011091B101B6E46B16D9F4ED2DF0E0EE29FF29E4918E2FEADEDD2081F082E08D
:2074200090E0A0E0B0E0E80EF91E0A1F1B1FE092AE01F092AF010093B0011093B101DC2470
:2074400018C0D801C701B695A7959795879559D5CEDE82E090E0A0E0B0E0E80EF91E0A1FF2
:207460001B1FE092AE01F092AF010093B0011093B1012197209709F0BECF7DC08090AE01F5
:207480009090AF01A090B001B090B10196E4691609F05DC083E0F40180935700E89507B63E
:2074A00000FCFDCF54C0F6E46F1661F5772031F1E090AE01F090AF010091B0011091B1019E
:2074C0007EDED82ECC24852D90E08C299D29F7010C0140925700E895112482E090E0A0E08B
:2074E000B0E0E80EF91E0A1F1B1FE092AE01F092AF010093B0011093B10102C060DE582E1A
:20750000742423C0E090AE01F090AF010091B0011091B10116950795F794E79450DE682FFA
:20752000C701F7D48091AE019091AF01A091B001B091B1010296A11DB11D8093AE01909349
:20754000AF01A093B001B093B101219704C05524772444244394209709F0A5CF96E46916B6
:2075600041F485E0F40180935700E89507B600FCFDCF8DE03CDE82E080936F009CC0833492
:2075800071F40091AE011091AF0119DE90E021E0F8010C0120935700E89511247CCE8336C8
:2075A00019F5E090AE01F090AF010091B0011091B10105DEF701E16090E021E00C0120938C
:2075C0005700E895112482E090E0A0E0B0E0E80EF91E0A1F1B1FE092AE01F092AF0100936A
:2075E000B0011093B10157CE8D3661F4E091AE01F091AF0185E080935700E89507B600FCF2
:20760000FDCF49CE823551F4E091AE01F091AF0105911491812FEBDD802F4CC0843421F5FE
:20762000E090AE01F090AF010091B0011091B10116950795F794E794C2DD682FC70169D4DE
:207640008091AE019091AF01A091B001B091B1010296A11DB11D8093AE019093AF01A093D8
:20766000B001B093B10117CE843609F5E090AE01F090AF010091B0011091B101D801C70142
:20768000B695A795979587953CD4B1DD82E090E0A0E0B0E0E80EF91E0A1F1B1FE092AE010A
:2076A000F092AF010093B0011093B10104C08B3111F08FE39CDD83E08093E9009091E8002B
:2076C0008091E8008E778093E80095FF04C010C08EB38823C9F08091E80080FFF9CF809193
:2076E000E8008E778093E80003C08EB3882361F08091E80080FFF9CF84E08093E9008091F1
:20770000E8008B778093E800DF91CF911F910F91FF90EF90DF90CF90BF90AF909F908F90AC
:207720007F906F905F904F9008959091B601892F8F77813249F58091B7018032A1F081328A
:2077400019F5913A09F58091E800877F8093E8008DE091E067E070E00BD28091E8008B770B
:207760008093E8000895913279F48091E800877F8093E8008DE091E067E070E05DD2809192
:20778000E8008E778093E800089582E061EC42E0B5D083E061E842E1B1D084E060E842E1EF
:2077A000ADC084B7877F84BF88E10FB6F89480936000109260000FBE20E880E090E00FB63F
:2077C000F89420936100809361000FBE81E085BF92E095BF3F9A209A559AE1E6F0E02083A1
:2077E000108247985D9A289A109289008AEF8093880090936F0083E080938100F0C0409116
:20780000000850910108109201081092000894B714BE88E10FB6F8948093600010926000D5
:207820000FBE292F30E0F901E270F07091FD18C090FF05C0859194918F5F9F4F81F423FFFF
:207840000FC08091090190910A014817590741F0E0E0F0E0859194918F5F9F4F09F042DC64
:20786000A0DF78941092AD011092AC010CC0DEDC36D38091AC019091AD0181549F4110F00D
:207880001092140141DC80911401882381F78091E00081608093E00025DC80E090E0089598
:2078A000FA01923049F0933061F09130F9F485E191E022E130E01EC087E291E02EE330E04D
:2078C00019C0882329F485E691E024E030E012C0813029F489E691E022E230E00BC0823006
:2078E00029F48DE891E028E130E004C080E090E020E030E091838083C90108958093E9004E
:207900008091EB0081608093EB001092ED006093EC004093ED008091EE00881F8827881F62
:2079200008958091B60188238CF403C08EB38823B1F08091E80082FFF9CF8091E8008B772A
:207940008093E80008958EB3882349F08091E80080FFF9CF8091E8008E778093E800089594
:20796000EF92FF920F931F9345D04CD008ED10E0F80180818F77808380818068808380819B
:207980008F7D808319BC1EBA1092B40180EEE82EF12CF70180818B7F8083F8018081816052
:2079A000808380E060E042E0A9DFE1EEF0E080818E7F8083E2EEF0E0808181608083808144
:2079C00088608083F70180818E7F8083F8018081806180831F910F91FF90EF900895E7ED06
:2079E000F0E08081816080838AE482BF81E08093B501B6CFE8EDF0E080818E7F808310921C
:207A0000E20008951092DA001092E10008951F920F920FB60F9211242F933F934F935F93F6
:207A20006F937F938F939F93AF93BF93EF93FF938091DA0080FF1BC08091D80080FF17C0B2
:207A40008091DA008E7F8093DA008091D90080FF0BC080E189BD82E189BD09B400FEFDCF36
:207A600081E08EBB3BD203C019BC1EBA37D28091E10080FF17C08091E20080FF13C0809138
:207A8000E2008E7F8093E2008091E20080618093E2008091D80080628093D80019BC85E049
:207AA0008EBB1CD28091E10084FF2CC08091E20084FF28C080E189BD82E189BD09B400FEC5
:207AC000FDCF8091D8008F7D8093D8008091E1008F7E8093E1008091E2008F7E8093E20012
:207AE0008091E20081608093E2008091B401882331F48091E30087FD02C081E001C084E067
:207B00008EBBECD18091E10083FF21C08091E20083FF1DC08091E100877F8093E10082E06A
:207B20008EBB1092B4018091E1008E7F8093E1008091E2008E7F8093E2008091E2008061E9
:207B40008093E20080E060E042E0D8DEC7D1FF91EF91BF91AF919F918F917F916F915F9130
:207B60004F913F912F910F900FBE0F901F9018959C014091BC015091BD014617570718F49D
:207B8000F90190E044C06115710511F0AB01F8CF8091E8008E778093E80040E050E0F0CF0F
:207BA0008EB3882309F444C0853009F443C08091E80083FF02C081E008958091E80082FD70
:207BC00031C08091E80080FF22C08091F3009091F200782F60E0292F30E0262B372B07C07A
:207BE00081918093F100415050402F5F3F4F4115510519F02830310598F390E02830310566
:207C000009F491E08091E8008E778093E8004115510531F6992321F605C08EB3882341F075
:207C2000853041F08091E80082FFF7CF80E0089582E0089583E008959C016115710529F47C
:207C40008091E8008B778093E800F90126C08EB3882391F1853091F18091E80083FF02C06C
:207C600081E008958091E80082FFF1CF06C08091F10081936150704059F02091F300809191
:207C8000F200322F20E090E0822B932B892B79F78091E8008B778093E80061157105B9F601
:207CA00005C08EB3882341F0853041F08091E80080FFF7CF80E0089582E0089583E00895C2
:207CC0000F931F93DF93CF9300D0CDB7DEB7E6EBF1E08091F100819381E0EE3BF807C9F792
:207CE00024DD8091E80083FFE4C08091B6019091B701953009F46DC0963040F4913081F1A7
:207D0000913070F0933009F0D4C02AC0983009F4A3C0993009F4B2C0963009F0CAC07CC023
:207D2000803809F4C6C0823809F0C3C08091BA0187708093E9008091EB001092E9002091DB
:207D4000E800277F2093E80090E025E0969587952A95E1F781708093F1001092F10087C0D8
:207D6000882319F0823009F0A4C08F71823009F0A0C08091B801882331F52091BA01277097
:207D800009F497C02093E9008091EB0080FF1BC0933021F48091EB00806213C08091EB0018
:207DA00080618093EB0081E090E002C0880F991F2A95E2F78093EA001092EA008091EB00E5
:207DC00088608093EB001092E9008091E800877F51C0882309F06DC01091B8011F770FB79B
:207DE000F8948091E800877F8093E8009ADD8091E80080FFFCCF8091E3008078812B809398
:207E0000E30080688093E300112311F482E001C083E08EBB0FBF4DC08058823008F049C033
:207E20008091B8019091B9016091BA01AE014F5F5F4F36DDBC01009709F43BC08091E8008E
:207E4000877F8093E80089819A8192DE8091E8008B778093E8002DC0803859F58091E800AA
:207E6000877F8093E8008091B4018093F1008091E8008E778093E80054DD1BC08823C9F4CA
:207E80009091B8019230A8F48091E800877F8093E8009093B40145DD8091B401882331F420
:207EA0008091E30087FD02C081E001C084E08EBB6CDC8091E80083FF0AC08091EB0080624E
:207EC0008093EB008091E800877F8093E8000F900F90CF91DF911F910F91089508951F9360
:207EE0008EB3882361F01091E9001092E9008091E80083FF01C0E4DE17701093E9001F916F
:207F00000895F999FECF92BD81BDF89A992780B50895262FF999FECF1FBA92BD81BD20BDBD
:207F20000FB6F894FA9AF99A0FBE01960895F894FFCF4341544552494E4100777700080031
:207F40000000000000080112011001020000084123360001000201000109023E00020100FF
:207F600080320904000001020201000524001001042402040524060001070582030800FF0C
:207F800009040100020A000000070504021000010705830210000104030904220341007216
:207FA000006400750069006E006F0020004C0065006F006E006100720064006F0000001836
:1A7FC00003410072006400750069006E006F0020004C004C004300000000D7
:00000001FF
